:04000000E4EF3EF0FB
:107DC8000001F6EF3EF0700ED312D390D38212006A
:107DD800000E0F015E6F000E5C6F000E956E000EB8
:107DE800936E1200E7EC3EF0ECEC3EF0000E8C6E69
:107DF800000E8A6E000E076E000E066E07BE0EEFAE
:107E08003FF0075009E1080E065CD8A00EEF3FF0DE
:107E180010EF3FF012EF3FF032EF3FF0000E8A6EA6
:107E280006C001F0010E026E012A1DEF3FF0D89046
:107E38000236012E1BEF3FF002508C6E020E026ECE
:107E4800040E016EBA0EE82EFED7012EFCD7022EC4
:107E5800FAD700D0064A072A02EF3FF0000E096E53
:107E6800000E086E09BE42EF3FF0095009E1080E06
:107E7800085CD8A042EF3FF044EF3FF046EF3FF0F8
:107E880066EF3FF0000E8C6E08C001F0010E026E26
:107E9800012A51EF3FF0D8900236012E4FEF3FF004
:107EA80002508A6E020E026E040E016EBA0EE82EA1
:107EB800FED7012EFCD7022EFAD700D0084A092A8D
:107EC80036EF3FF0030E026E080E016E770EE82EB5
:107ED800FED7012EFCD7022EFAD700F0000E0B6E4B
:107EE800000E0A6E0BBE82EF3FF00B5009E1080E40
:107EF8000A5CD8A082EF3FF084EF3FF086EF3FF0B6
:107F0800B1EF3FF0000E8C6E0AC001F0800E026ED9
:107F1800960E036E980E046E000E056E016697EFBE
:107F28003FF09FEF3FF0053405320432033202324E
:107F3800012E92EF3FF002508A6E020E026E040E7E
:107F4800016EBA0EE82EFED7012EFCD7022EFAD704
:107F580000D00A4A0B2A76EF3FF0000E0D6E000E95
:107F68000C6E0DBEC1EF3FF00D5009E1080E0C5C20
:107F7800D8A0C1EF3FF0C3EF3FF0C5EF3FF0F0EFFF
:107F88003FF0000E8A6E0CC001F0800E026E960E55
:107F9800036E980E046E000E056E0166D6EF3FF074
:107FA800DEEF3FF005340532043203320232012E8F
:107FB800D1EF3FF002508C6E020E026E040E016E7D
:107FC800BA0EE82EFED7012EFCD7022EFAD700D023
:107FD8000C4A0D2AB5EF3FF0030E026E080E016E33
:107FE800770EE82EFED7012EFCD7022EFAD700F026
:087FF800FAEF3EF000EF00F08B
:020000040020DA
:08000000FFFFFFFFFFFFFFFF00
:020000040030CA
:0E00000000285E3CFFD385FF0FC00FE00F40CD
:00000001FF
