:040000006CEF3FF072
:107ED80000017EEF3FF0700ED312D390D3821200D0
:107EE800000E0F015E6F000E5C6F000E956E000EA7
:107EF800936E12006FEC3FF074EC3FF0000E8C6E46
:107F0800000E8A6E000E046E000E036E04BE96EF1D
:107F18003FF0045009E1080E035CD8A096EF3FF04B
:107F280098EF3FF09AEF3FF0BAEF3FF0000E8A6EFD
:107F380003C001F0010E026E012AA5EF3FF0D890B0
:107F48000236012EA3EF3FF002508C6E030E026E34
:107F5800080E016E770EE82EFED7012EFCD7022EF2
:107F6800FAD700F0034A042A8AEF3FF0000E066EA3
:107F7800000E056E06BECAEF3FF0065009E1080E76
:107F8800055CD8A0CAEF3FF0CCEF3FF0CEEF3FF052
:107F9800EEEF3FF0000E8C6E05C001F0010E026E90
:107FA800012AD9EF3FF0D8900236012ED7EF3FF0E3
:107FB80002508A6E030E026E080E016E770EE82ECE
:107FC800FED7012EFCD7022EFAD700F0054A062A62
:107FD800BEEF3FF0050E026E0F0E016EF10EE82E99
:107FE800FED7012EFCD7022EFAD700F08C688A68DB
:087FF80086EF3FF000EF00F0FE
:020000040020DA
:08000000FFFFFFFFFFFFFFFF00
:020000040030CA
:0E00000000285E3CFFD385FF0FC00FE00F40CD
:00000001FF
